:100000000C942A000C9447000C9447000C94470071
:100010000C9447000C9447000C9447000C94470044
:100020000C9447000C940E1B0C946E1A0C943B1A03
:100030000C9447000C9447000C9447000C94470024
:100040000C946C070C9447000C9447000C944700E8
:100050000C94470011241FBECFE5D8E0DEBFCDBF12
:1000600012E0A0E6B0E0E4EEF0E502C005900D92EB
:10007000A635B107D9F712E0A6E5B2E001C01D929E
:10008000A536B107E1F70E94E0210C9470280C948A
:100090000000EF92FF920F931F937B018C0120E0F1
:1000A00030E040E05FE40E94F50388238CF0C80153
:1000B000B70120E030E040E05FE40E94C1010E940F
:1000C00055049B01AC01205030404040504806C0D0
:1000D000C801B7010E9455049B01AC01B901CA01D6
:1000E0001F910F91FF90EF900895A0E0B0E0EBE733
:1000F000F0E00C943928DC012B01FA019C9192303C
:1001000008F439C1EB018881823008F433C194309E
:1001100069F4843009F02FC111969C91119789815F
:10012000981709F428C1A5E3B2E025C1843009F489
:1001300021C18230A9F4923009F01DC19A01AD01AC
:1001400088E0EA010990AE01E90109929E0181501F
:10015000C1F7E201898111969C918923818308C1AD
:10016000923009F407C112962D903C901397EB0141
:100170008A819B811496AD90BD90CD90DC901797AD
:10018000EC80FD800E811F819101281B390BB90184
:1001900037FF04C066277727621B730B6032710537
:1001A0000CF061C0121613066CF537014801062EDB
:1001B00004C096948794779467940A94D2F721E0C8
:1001C00030E040E050E004C0220F331F441F551FB1
:1001D0006A95D2F721503040404050402E213F21B7
:1001E00040235123211531054105510521F021E01E
:1001F00030E040E050E079018A01E628F72808293C
:1002000019293CC0232BD1F1260E371E350146019A
:10021000062E04C096948794779467940A94D2F734
:1002200021E030E040E050E004C0220F331F441FC3
:10023000551F6A95D2F721503040404050402A2146
:100240003B214C215D21211531054105510521F04E
:1002500021E030E040E050E059016A01A628B728CB
:10026000C828D9280BC0821593052CF01C01AA249C
:10027000BB24650103C0EE24FF24870111969C91E5
:10028000D20111968C91981709F445C0992339F041
:10029000A80197012A193B094C095D0906C0A6016E
:1002A00095012E193F09400B510B57FD08C01182D3
:1002B0003382228224833583468357831DC081E0A5
:1002C00081833382228288279927DC01821B930B4A
:1002D000A40BB50B84839583A683B7830DC0220F2F
:1002E000331F441F551F24833583468357838281E0
:1002F000938101979383828324813581468157813D
:10030000DA01C9010197A109B1098F5F9F4FAF4F72
:10031000BF4328F30BC0918333822282EA0CFB1C7B
:100320000C1D1D1DE482F5820683178383E0808304
:10033000248135814681578157FF1AC0C901AA27F8
:1003400097FDA095BA2F81709070A070B0705695EF
:10035000479537952795822B932BA42BB52B848318
:100360009583A683B7838281938101969383828349
:10037000DF0101C0D201CD01CDB7DEB7E2E10C94BF
:100380005528A0E2B0E0E7ECF1E00C944528698341
:100390007A838B839C832D833E834F835887E9E048
:1003A000EE2EF12CEC0EFD1ECE010196B7010E943F
:1003B0007E058E010F5E1F4FCE010596B8010E948B
:1003C0007E058A8991E089278A8BC701B801AE0131
:1003D000475E5F4F0E9475000E94A904A096E6E068
:1003E0000C946128A0E2B0E0E8EFF1E00C9445281D
:1003F00069837A838B839C832D833E834F835887C5
:10040000F9E0EF2EF12CEC0EFD1ECE010196B701A6
:100410000E947E058E010F5E1F4FCE010596B8012A
:100420000E947E05C701B801AE01475E5F4F0E9482
:1004300075000E94A904A096E6E00C946128A0E251
:10044000B0E0E5E2F2E00C94392869837A838B838B
:100450009C832D833E834F835887CE010196BE0136
:10046000675F7F4F0E947E05CE010596BE016F5EDD
:100470007F4F0E947E059985923088F0898982306D
:10048000C8F0943019F4823051F404C0843029F457
:10049000923081F485E392E0C6C0923049F420E0C6
:1004A0009A858A89981321E02A87CE010996BBC0D4
:1004B000823049F420E09A858A89981321E02A8BBA
:1004C000CE014196B0C02D843E844F8458886D88FB
:1004D0007E888F88988CEE24FF248701AA24BB2471
:1004E000650140E050E060E070E0E0E0F0E0C10174
:1004F00081709070892BE9F0E60CF71C081D191D1E
:100500009A01AB012A0D3B1D4C1D5D1D80E090E062
:10051000A0E0B0E0E614F7040805190520F481E036
:1005200090E0A0E0B0E0BA01A901480F591F6A1F8E
:100530007B1FAA0CBB1CCC1CDD1C97FE08C081E0F5
:1005400090E0A0E0B0E0A82AB92ACA2ADB2A3196B6
:10055000E032F10549F0660C771C881C991C569412
:10056000479437942794C3CFFA85EA892B893C892D
:100570008B859C85280F391F2E5F3F4F17C0CA01FE
:1005800081709070892B61F016950795F794E79428
:1005900080E090E0A0E0B0E8E82AF92A0A2B1B2BC3
:1005A00076956795579547952F5F3F4F77FDE7CF36
:1005B0000CC0440F551F661F771F17FD4160EE0CDE
:1005C000FF1C001F111F21503040403090E05907A0
:1005D00090E0690790E4790760F32B8F3C8FDB0193
:1005E000CA018F779070A070B07080349105A1051A
:1005F000B10561F447FD0AC0E114F10401051105DC
:1006000029F0405C5F4F6F4F7F4F40781A8EFE1786
:1006100011F081E08A8F4D8F5E8F6F8F78A383E01A
:10062000898FCE0149960E94A904A096E2E10C941C
:100630005528A8E1B0E0EFE1F3E00C94412869838C
:100640007A838B839C832D833E834F835887B9E0C5
:10065000EB2EF12CEC0EFD1ECE010196B7010E948F
:100660007E058E010F5E1F4FCE010596B8010E94D8
:100670007E052985223008F47EC03989323010F495
:10068000B8017CC08A859A8989278A87243011F02D
:10069000223031F4231709F06EC065E372E06EC0BA
:1006A000343039F41D861E861F86188A1C861B86E8
:1006B00004C0323021F484E08987B7015FC02B8504
:1006C0003C858B899C89281B390B3C872B87ED84C3
:1006D000FE840F851889AD88BE88CF88D88CEA142F
:1006E000FB040C051D0540F4EE0CFF1C001F111F40
:1006F000215030403C872B8720E030E040E050E044
:1007000080E090E0A0E0B0E460E070E0EA14FB0478
:100710000C051D0540F0282B392B4A2B5B2BEA18C2
:10072000FB080C091D09B695A79597958795EE0CC2
:10073000FF1C001F111F6F5F7F4F6F31710531F775
:10074000DA01C9018F779070A070B0708034910584
:10075000A105B10561F427FD0AC0E114F10401050A
:10076000110529F0205C3F4F4F4F5F4F20782D87B8
:100770003E874F87588BBE01675F7F4FCB010E943A
:10078000A9046896EAE00C945D28A8E1B0E0EBECDF
:10079000F3E00C94452869837A838B839C832D83B3
:1007A0003E834F83588789E0E82EF12CEC0EFD1E26
:1007B000CE010196B7010E947E058E010F5E1F4F8C
:1007C000CE010596B8010E947E058985823040F0F1
:1007D0008989823028F0C701B8010E94F60501C05E
:1007E0008FEF6896E6E00C946128A8E1B0E0EBEFAB
:1007F000F3E00C94452869837A838B839C832D8353
:100800003E834F83588789E0E82EF12CEC0EFD1EC5
:10081000CE010196B7010E947E058E010F5E1F4F2B
:10082000CE010596B8010E947E058985823040F090
:100830008989823028F0C701B8010E94F60501C0FD
:100840008FEF6896E6E00C946128A8E1B0E0EBE257
:10085000F4E00C94452869837A838B839C832D83F1
:100860003E834F83588789E0E82EF12CEC0EFD1E65
:10087000CE010196B7010E947E058E010F5E1F4FCB
:10088000CE010596B8010E947E058985823040F030
:100890008989823028F0C701B8010E94F60501C09D
:1008A00081E06896E6E00C946128ACE0B0E0EBE50E
:1008B000F4E00C94492869837A838B839C83CE016E
:1008C0000196BE016B5F7F4F0E947E058D81823055
:1008D00061F1823050F1843021F48E81882351F10E
:1008E0002EC02F81388537FD20C06E812F31310514
:1008F0001CF06623F9F023C08EE190E0821B930B7D
:1009000029853A854B855C8504C056954795379572
:1009100027958A95D2F76623B1F05095409530958A
:1009200021953F4F4F4F5F4F0EC020E030E040E039
:1009300050E009C02FEF3FEF4FEF5FE704C020E02A
:1009400030E040E050E8B901CA012C96E2E00C9496
:100950006528DF92EF92FF920F931F93FC01E480D2
:10096000F58006811781D1808081823048F480E053
:1009700090E0A0E1B0E0E82AF92A0A2B1B2BA5C0E1
:10098000843009F49FC0823021F4EE24FF248701D3
:1009900005C0E114F1040105110519F4E0E0F0E0EF
:1009A00096C0628173819FEF623879070CF05BC05B
:1009B00022E83FEF261B370B2A3131052CF020E0CF
:1009C00030E040E050E02AC0B801A701022E04C088
:1009D00076956795579547950A94D2F781E090E010
:1009E000A0E0B0E004C0880F991FAA1FBB1F2A9582
:1009F000D2F70197A109B1098E219F21A023B1232C
:100A00000097A105B10521F081E090E0A0E0B0E001
:100A10009A01AB01282B392B4A2B5B2BDA01C90138
:100A20008F779070A070B07080349105A105B105EA
:100A300039F427FF09C0205C3F4F4F4F5F4F04C080
:100A4000215C3F4F4F4F5F4FE0E0F0E02030A0E0EF
:100A50003A07A0E04A07A0E45A0710F0E1E0F0E00E
:100A600079018A0127C06038710564F5FB01E158FE
:100A7000FF4FD801C7018F779070A070B07080349D
:100A80009105A105B10539F4E7FE0DC080E490E0C1
:100A9000A0E0B0E004C08FE390E0A0E0B0E0E80E9A
:100AA000F91E0A1F1B1F17FF05C016950795F7941F
:100AB000E794319687E016950795F794E7948A9521
:100AC000D1F705C0EE24FF248701EFEFF0E06E2F91
:100AD000679566276795902F9F77D794DD24D794E5
:100AE0008E2F8695492F462B582F5D29B701CA01B5
:100AF0001F910F91FF90EF90DF900895FC01DB01B3
:100B0000408151812281622F6F7770E0221F22275E
:100B1000221F9381892F880F822B282F30E0991F65
:100B20009927991F11969C93119721153105A9F5C5
:100B3000411551056105710511F482E037C082E865
:100B40009FEF13969C938E9312979A01AB0167E0E7
:100B5000220F331F441F551F6A95D1F783E08C93F2
:100B60000DC0220F331F441F551F12968D919C916B
:100B70001397019713969C938E931297203080E0E1
:100B8000380780E0480780E4580758F314962D93FF
:100B90003D934D935C93179708952F3F310579F45A
:100BA000411551056105710519F484E08C93089590
:100BB00064FF03C081E08C9312C01C9210C02F57B9
:100BC000304013963C932E93129783E08C9387E0EA
:100BD000440F551F661F771F8A95D1F770641496CE
:100BE0004D935D936D937C93179708951F93DC014C
:100BF000FB019C91923008F447C08081823008F458
:100C000043C0943051F411961C91843099F5818140
:100C1000682F70E0611B71093FC0843021F0923071
:100C200031F48230B9F18181882389F12DC0119688
:100C30001C9111978230F1F081811817D9F4129626
:100C40002D913C911397828193818217930794F0A1
:100C500028173907BCF014968D919D910D90BC9189
:100C6000A02D2481358146815781281739074A07ED
:100C70005B0718F4112341F00AC082179307A407F9
:100C8000B50740F4112319F061E070E005C06FEF83
:100C90007FEF02C060E070E0CB011F910895DF9309
:100CA000CF93CDB7DEB7A7E2B0E0E7E2F0E0808116
:100CB0008F778C93A7E2B0E0E7E2F0E08081806478
:100CC0008C93A7E2B0E0E7E2F0E080818F7D8C9327
:100CD000A6E2B0E0E6E2F0E080818F7D8C93A6E2B0
:100CE000B0E0E6E2F0E0808184608C93A6E2B0E0C0
:100CF000E6E2F0E0808182608C93A6E2B0E0E6E27A
:100D0000F0E080818E7F8C93A6E2B0E0E6E2F0E036
:100D1000808180688C93CF91DF910895DF93CF938A
:100D2000CDB7DEB728970FB6F894DEBF0FBECDBFA4
:100D30008E8378876F8381E08D8319821A821B826C
:100D40001C828E81803208F057C08F819885009771
:100D500009F452C0A7E2B0E0E7E2F0E08081807ED3
:100D60008C93A7E2B0E0E7E2F0E090818E81892BDE
:100D70008C93A6E2B0E0E6E2F0E0808180648C93A0
:100D80000BC089819A81AB81BC810196A11DB11DE7
:100D900089839A83AB83BC83E6E2F0E08081882F6D
:100DA00090E080719070009761F489819A81AB81A5
:100DB000BC81803523EC920720E0A20720E0B20737
:100DC00000F3E6E2F0E08081882F90E0807190707F
:100DD000009781F0A6E2B0E0E6E2F0E08081806179
:100DE0008C93E4E2F0E080819181EF81F88591833A
:100DF000808303C01D8201C01D828D8128960FB69D
:100E0000F894DEBF0FBECDBFCF91DF910895DF9381
:100E1000CF9300D000D0CDB7DEB78A837C836B83BD
:100E200081E089838A81803278F58B819C8100976B
:100E300059F180915802882339F581E08093580256
:100E40008B819C819093570280935602A6E2B0E07A
:100E5000E6E2F0E0808188608C93A7E2B0E0E7E210
:100E6000F0E08081807E8C93A7E2B0E0E7E2F0E0E2
:100E700090818A81892B8C93A6E2B0E0E6E2F0E0D3
:100E8000808180648C9301C0198289810F900F90BA
:100E90000F900F90CF91DF910895DF93CF9300D003
:100EA0000F92CDB7DEB79B838A8381E089838A81E5
:100EB0009B81009749F0E4E2F0E080819181EA8132
:100EC000FB819183808301C0198289810F900F90EB
:100ED0000F90CF91DF9108951F920F920FB60F924E
:100EE00011242F933F934F935F936F937F938F932F
:100EF0009F93AF93BF93EF93FF93DF93CF93CDB7C0
:100F0000DEB78091560290915702009799F01092A7
:100F10005802A6E2B0E0E6E2F0E08081877F8C93A1
:100F20002091560230915702E4E2F0E080819181F5
:100F3000F9010995CF91DF91FF91EF91BF91AF91A9
:100F40009F918F917F916F915F914F913F912F91E1
:100F50000F900FBE0F901F901895DF93CF93CDB7D2
:100F6000DEB7AFE5B0E0EFE5F0E0808180688C931C
:100F7000CF91DF910895DF93CF93CDB7DEB7AFE583
:100F8000B0E0EFE5F0E0808180688C93CF91DF9155
:100F90000895DF93CF93CDB7DEB765970FB6F8947A
:100FA000DEBF0FBECDBF9D8B8C8B81E08A8B1F86F1
:100FB0008C899D89009709F4F0C0EC89FD898FEF39
:100FC0008083198AE5C08989882F90E0FC01E25B63
:100FD000FD4F908181E0692F40E00E945511188AF1
:100FE000C1C08889882F90E0FC01EE5AFD4F9081A6
:100FF0009E012D5E3F4F81E0692FA9010E947F1263
:101000008B89882309F0ABC080E090E0A8E4B2E4CB
:101010008B879C87AD87BE876B857C858D859E85FC
:1010200020E030E04AEF54E40E941F02DC01CB01D3
:101030008F839887A987BA876F81788589859A85F4
:1010400020E030E040E85FE30E94250488232CF490
:1010500081E090E09E838D833FC06F817885898594
:101060009A8520E03FEF4FE757E40E94C50318162A
:101070004CF56B857C858D859E8520E030E040E2D7
:1010800051E40E941F02DC01CB01BC01CD010E9492
:101090004900DC01CB019E838D830FC088EC90E07A
:1010A0009C838B838B819C810197F1F79C838B833D
:1010B0008D819E8101979E838D838D819E81009776
:1010C00069F714C06F81788589859A850E944900E7
:1010D000DC01CB019E838D838D819E819A838983E0
:1010E00089819A810197F1F79A8389838889882F6A
:1010F00090E0FC01EE5AFD4F90819E012D5E3F4F26
:1011000081E0692FA9010E947F120FC08889882F72
:1011100090E0FC01EE5AFD4F90819E012D5E3F4F05
:1011200081E0692FA9010E947F128B89882371F3C6
:101130008989482F50E08889282F30E0CA01880F1C
:10114000991F880F991F820F931FFC01E25CFD4FCE
:101150008081EC89FD89808381E08F8707C0888941
:101160008F5F888B8889843008F43BCF8989882FEA
:1011700090E0FC01E25BFD4F908181E0692F41E04E
:101180000E9455118F85813049F089898F5F898B45
:101190008989843008F417CF01C01A8A8A89659634
:1011A0000FB6F894DEBF0FBECDBFCF91DF9108958B
:1011B0000F931F93DF93CF93CDB7DEB7CC54D040BE
:1011C0000FB6F894DEBF0FBECDBFFE01E75BFF4F49
:1011D00080E090E0ACE0B2E480839183A283B383AB
:1011E0008E010B5B1F4FFE01E75BFF4F608171813A
:1011F0008281938120E030E04AEF54E40E941F0294
:10120000DC01CB01F80180839183A283B383FE01CB
:10121000EB5BFF4F608171818281938120E030E040
:1012200040E85FE30E942504882344F4FE01ED5B5F
:10123000FF4F81E090E09183808364C0FE01EB5B0F
:10124000FF4F608171818281938120E03FEF4FE702
:1012500057E40E94C50318160CF043C0FE01E75B7B
:10126000FF4F608171818281938120E030E040E214
:1012700051E40E941F02DC01CB018E010D5B1F4F68
:10128000BC01CD010E944900DC01CB01F801918332
:1012900080831FC0FE01EF5BFF4F88EC90E09183DD
:1012A0008083FE01EF5BFF4F808191810197F1F711
:1012B000FE01EF5BFF4F91838083DE01AD5BBF4F8B
:1012C000FE01ED5BFF4F80819181019711969C9308
:1012D0008E93FE01ED5BFF4F808191810097D1F6E7
:1012E00024C08E010D5B1F4FFE01EB5BFF4F608141
:1012F0007181828193810E944900DC01CB01F80158
:1013000091838083FE01ED5BFF4F80819181FE011F
:10131000FF9691838083FE01FF96808191810197E2
:10132000F1F7FE01FF969183808388E30E949B0B77
:1013300080E090E0A0E2B2E48BAF9CAFADAFBEAF77
:101340006BAD7CAD8DAD9EAD2BEA3AEA4AE250E43E
:101350000E941F02DC01CB018FAB98AFA9AFBAAFDF
:101360006FA978AD89AD9AAD20E030E040E85FE349
:101370000E94250488231CF481E08EAB91C06FA9E4
:1013800078AD89AD9AAD20E030E04FE753E40E949C
:10139000C50318160CF07BC06BAD7CAD8DAD9EAD5A
:1013A00020E030E04AE754E40E941903DC01CB015D
:1013B0008AAB9BABACABBDAB6AA97BA98CA99DA941
:1013C00020E030E04AEF54E40E941F02DC01CB0130
:1013D0008EA79FA7A8ABB9AB6EA57FA588A999A931
:1013E00020E030E040E85FE30E94250488232CF4ED
:1013F00081E090E09DA78CA73FC06EA57FA588A93E
:1014000099A920E03FEF4FE757E40E94C503181663
:101410004CF56AA97BA98CA99DA920E030E040E2A7
:1014200051E40E941F02DC01CB01BC01CD010E94EE
:101430004900DC01CB019DA78CA70FC088EC90E090
:101440009BA78AA78AA59BA50197F1F79BA78AA7C7
:101450008CA59DA501979DA78CA78CA59DA5009700
:1014600069F724C06EA57FA588A999A90E944900A3
:10147000DC01CB019DA78CA78CA59DA599A788A76A
:1014800088A599A50197F1F799A788A70FC06FA91B
:1014900078AD89AD9AAD0E944900DC01CB018EABDD
:1014A0008EA98FA38FA18A95F1F78FA38FE00E9459
:1014B0009B0B80E090E0A0E2B2E48BA39CA3ADA3E1
:1014C000BEA36BA17CA18DA19EA12BEA3AEA4AE2C0
:1014D00050E40E941F02DC01CB018F8F98A3A9A3C7
:1014E000BAA36F8D78A189A19AA120E030E040E8ED
:1014F0005FE30E94250488231CF481E08E8F91C055
:101500006F8D78A189A19AA120E030E04FE753E4E4
:101510000E94C50318160CF07BC06BA17CA18DA1A5
:101520009EA120E030E04AE754E40E941903DC0168
:10153000CB018A8F9B8FAC8FBD8F6A8D7B8D8C8DFD
:101540009D8D20E030E04AEF54E40E941F02DC0150
:10155000CB018E8B9F8BA88FB98F6E897F89888DE9
:10156000998D20E030E040E85FE30E942504882365
:101570002CF481E090E09D8B8C8B3FC06E897F893D
:10158000888D998D20E03FEF4FE757E40E94C50317
:1015900018164CF56A8D7B8D8C8D9D8D20E030E08A
:1015A00040E251E40E941F02DC01CB01BC01CD01ED
:1015B0000E944900DC01CB019D8B8C8B0FC088EC15
:1015C00090E09B8B8A8B8A899B890197F1F79B8B93
:1015D0008A8B8C899D8901979D8B8C8B8C899D89A9
:1015E000009769F724C06E897F89888D998D0E9444
:1015F0004900DC01CB019D8B8C8B8C899D89998B5B
:10160000888B888999890197F1F7998B888B0FC00E
:101610006F8D78A189A19AA10E944900DC01CB01BC
:101620008E8F8E8D8F878F858A95F1F78F8781E0DA
:101630000E949B0B80E090E0A0E0B0E48B879C8749
:10164000AD87BE876B857C858D859E8520E030E0EB
:101650004AEF54E40E941F02DC01CB018F8398877C
:10166000A987BA876F81788589859A8520E030E0DF
:1016700040E85FE30E94250488232CF481E090E099
:101680009E838D833FC06F81788589859A8520E010
:101690003FEF4FE757E40E94C50318164CF56B85E2
:1016A0007C858D859E8520E030E040E251E40E94FB
:1016B0001F02DC01CB01BC01CD010E944900DC010D
:1016C000CB019E838D830FC088EC90E09C838B833D
:1016D0008B819C810197F1F79C838B838D819E8107
:1016E00001979E838D838D819E81009769F714C039
:1016F0006F81788589859A850E944900DC01CB013C
:101700009E838D838D819E819A83898389819A812D
:101710000197F1F79A83898386E00E949B0BC45B53
:10172000DF4F0FB6F894DEBF0FBECDBFCF91DF9174
:101730001F910F910895DF93CF93CDB7DEB76997CF
:101740000FB6F894DEBF0FBECDBF898F83E062E095
:1017500040E00E94551183E061E040E00E94551195
:1017600082E0698D0E94DD1383E060E041E00E9429
:10177000551180E090E0A0E8BFE38D8B9E8BAF8B8E
:10178000B88F6D897E898F89988D2BEA3AEA4AE273
:1017900050E40E941F02DC01CB01898B9A8BAB8B3A
:1017A000BC8B69897A898B899C8920E030E040E88C
:1017B0005FE30E94250488231CF481E0888B91C09C
:1017C00069897A898B899C8920E030E04FE753E46E
:1017D0000E94C50318160CF07BC06D897E898F8925
:1017E000988D20E030E04AE754E40E941903DC01C0
:1017F000CB018C879D87AE87BF876C857D858E8565
:101800009F8520E030E04AEF54E40E941F02DC0193
:10181000CB0188879987AA87BB87688579858A8560
:101820009B8520E030E040E85FE30E9425048823A8
:101830002CF481E090E09F838E833FC0688579859A
:101840008A859B8520E03FEF4FE757E40E94C50360
:1018500018164CF56C857D858E859F8520E030E0DF
:1018600040E251E40E941F02DC01CB01BC01CD012A
:101870000E944900DC01CB019F838E830FC088EC5E
:1018800090E09D838C838C819D810197F1F79D83EE
:101890008C838E819F8101979F838E838E819F8110
:1018A000009769F724C0688579858A859B850E94A1
:1018B0004900DC01CB019F838E838E819F819B83B6
:1018C0008A838A819B810197F1F79B838A830FC06A
:1018D00069897A898B899C890E944900DC01CB0146
:1018E000888B8889898389818A95F1F7898383E048
:1018F00060E040E00E94551169960FB6F894DEBF93
:101900000FBECDBFCF91DF910895DF93CF93CDB7B9
:10191000DEB769970FB6F894DEBF0FBECDBF898FD3
:1019200083E062E041E00E94551183E061E040E025
:101930000E94551182E0698D0E94DD1383E060E012
:1019400041E00E94551180E090E0A0E8BFE38D8B5C
:101950009E8BAF8BB88F6D897E898F89988D2BEA8E
:101960003AEA4AE250E40E941F02DC01CB01898B73
:101970009A8BAB8BBC8B69897A898B899C8920E097
:1019800030E040E85FE30E94250488231CF481E0F6
:10199000888B91C069897A898B899C8920E030E0A5
:1019A0004FE753E40E94C50318160CF07BC06D8905
:1019B0007E898F89988D20E030E04AE754E40E94C8
:1019C0001903DC01CB018C879D87AE87BF876C85AF
:1019D0007D858E859F8520E030E04AEF54E40E94AB
:1019E0001F02DC01CB0188879987AA87BB8768859E
:1019F00079858A859B8520E030E040E85FE30E949E
:101A0000250488232CF481E090E09F838E833FC0DF
:101A1000688579858A859B8520E03FEF4FE757E40D
:101A20000E94C50318164CF56C857D858E859F85B3
:101A300020E030E040E251E40E941F02DC01CB01D3
:101A4000BC01CD010E944900DC01CB019F838E8344
:101A50000FC088EC90E09D838C838C819D810197E1
:101A6000F1F79D838C838E819F8101979F838E8365
:101A70008E819F81009769F724C0688579858A8562
:101A80009B850E944900DC01CB019F838E838E8160
:101A90009F819B838A838A819B810197F1F79B8336
:101AA0008A830FC069897A898B899C890E94490041
:101AB000DC01CB01888B8889898389818A95F1F73C
:101AC000898383E060E040E00E94551169960FB67B
:101AD000F894DEBF0FBECDBFCF91DF910895DF93A5
:101AE000CF9300D00F92CDB7DEB79B838A830EC011
:101AF0008981282F30E08A819B81FC01E20FF31F4E
:101B000080810E94850C89818F5F89838981282F3C
:101B100030E08A819B81FC01E20FF31F80818823E2
:101B200039F70F900F900F90CF91DF9108950F9399
:101B30001F93DF93CF93CDB7DEB7CB56D0400FB610
:101B4000F894DEBF0FBECDBFFE01E859FF4F6083A2
:101B50007183828393831A82FE01E859FF4F80814B
:101B60009181A281B3810097A105B105E1F580E3E0
:101B70000E94850C5CC0FE01E859FF4F8081918175
:101B8000A281B3812AE030E040E050E0BC01CD0109
:101B90000E941728DC01CB018B838A81282F30E03B
:101BA000CE010496FC01E20FF31F8B8180838A81B2
:101BB0008F5F8A838E0108591F4FFE01E859FF4F3E
:101BC00080819181A281B3812AE030E040E050E041
:101BD000BC01CD010E941728DA01C901F8018083F8
:101BE0009183A283B383FE01E859FF4F80819181E5
:101BF000A281B3810097A105B10509F0BCCF8A810C
:101C00008150898311C08981282F332727FD309582
:101C1000CE010496FC01E20FF31F8081805D0E94DB
:101C2000850C8981815089838981882364F7C5590E
:101C3000DF4F0FB6F894DEBF0FBECDBFCF91DF915F
:101C40001F910F910895DF93CF9300D000D00F9292
:101C5000CDB7DEB78A836B8381E089838B8188323D
:101C6000A8F58A81282F30E03D832C838C819D81CB
:101C700082309105D9F02C813D812330310534F437
:101C80008C819D818130910561F01FC02C813D8147
:101C90002330310581F08C819D818430910581F064
:101CA00014C08B8180580E949B0B10C08B81805484
:101CB0000E949B0B0BC08B818C560E949B0B06C015
:101CC0008B818C520E949B0B01C0198289810F90DD
:101CD0000F900F900F900F90CF91DF910895DF93A9
:101CE000CF93CDB7DEB72E970FB6F894DEBF0FBEF9
:101CF000CDBF81E00E949B0B80E090E0A0E0B0E4CB
:101D00008B879C87AD87BE876B857C858D859E85FF
:101D100020E030E04AEF54E40E941F02DC01CB01D6
:101D20008F839887A987BA876F81788589859A85F7
:101D300020E030E040E85FE30E94250488232CF493
:101D400081E090E09E838D833FC06F817885898597
:101D50009A8520E03FEF4FE757E40E94C50318162D
:101D60004CF56B857C858D859E8520E030E040E2DA
:101D700051E40E941F02DC01CB01BC01CD010E9495
:101D80004900DC01CB019E838D830FC088EC90E07D
:101D90009C838B838B819C810197F1F79C838B8340
:101DA0008D819E8101979E838D838D819E81009779
:101DB00069F714C06F81788589859A850E944900EA
:101DC000DC01CB019E838D838D819E819A838983E3
:101DD00089819A810197F1F79A8389832E960FB6AC
:101DE000F894DEBF0FBECDBFCF91DF910895DF9392
:101DF000CF93CDB7DEB72E970FB6F894DEBF0FBEE8
:101E0000CDBF8CE00E949B0B80E090E0A0E0B0E4AE
:101E10008B879C87AD87BE876B857C858D859E85EE
:101E200020E030E04AEF54E40E941F02DC01CB01C5
:101E30008F839887A987BA876F81788589859A85E6
:101E400020E030E040E85FE30E94250488232CF482
:101E500081E090E09E838D833FC06F817885898586
:101E60009A8520E03FEF4FE757E40E94C50318161C
:101E70004CF56B857C858D859E8520E030E040E2C9
:101E800051E40E941F02DC01CB01BC01CD010E9484
:101E90004900DC01CB019E838D830FC088EC90E06C
:101EA0009C838B838B819C810197F1F79C838B832F
:101EB0008D819E8101979E838D838D819E81009768
:101EC00069F714C06F81788589859A850E944900D9
:101ED000DC01CB019E838D838D819E819A838983D2
:101EE00089819A810197F1F79A8389832E960FB69B
:101EF000F894DEBF0FBECDBFCF91DF910895DF9381
:101F0000CF93CDB7DEB72E970FB6F894DEBF0FBED6
:101F1000CDBF8FE00E949B0B80E090E0A0E0B0E49A
:101F20008B879C87AD87BE876B857C858D859E85DD
:101F300020E030E04AEF54E40E941F02DC01CB01B4
:101F40008F839887A987BA876F81788589859A85D5
:101F500020E030E040E85FE30E94250488232CF471
:101F600081E090E09E838D833FC06F817885898575
:101F70009A8520E03FEF4FE757E40E94C50318160B
:101F80004CF56B857C858D859E8520E030E040E2B8
:101F900051E40E941F02DC01CB01BC01CD010E9473
:101FA0004900DC01CB019E838D830FC088EC90E05B
:101FB0009C838B838B819C810197F1F79C838B831E
:101FC0008D819E8101979E838D838D819E81009757
:101FD00069F714C06F81788589859A850E944900C8
:101FE000DC01CB019E838D838D819E819A838983C1
:101FF00089819A810197F1F79A8389832E960FB68A
:10200000F894DEBF0FBECDBFCF91DF910895DF936F
:10201000CF93CDB7DEB7EAE3F0E080EF8083E7E36C
:10202000F0E08FE08083E4E3F0E08FEF8083E1E392
:10203000F0E08FEF8083EBE3F0E01082E8E3F0E084
:102040008FEF8083E5E3F0E01082E2E3F0E01082BE
:10205000CF91DF910895DF93CF93CDB7DEB72E9761
:102060000FB6F894DEBF0FBECDBF8A836B834C835F
:1020700081E089838A81843008F00CC18B818830AB
:1020800008F008C18C81813021F08C81882309F00F
:1020900001C18A81282F30E03E872D878D859E855E
:1020A0008130910509F44FC02D853E8522303105E0
:1020B0002CF48D859E85009771F0EDC02D853E85B1
:1020C0002230310509F477C08D859E8583309105D6
:1020D00009F4A9C0E0C08C81282F30E03C872B8711
:1020E0008B859C850097D1F02B853C85213031056F
:1020F00009F0D1C0AAE3B0E0EAE3F0E08081482F24
:102100008B81282F30E081E090E0022E02C0880F02
:10211000991F0A94E2F7842B8C93BDC0AAE3B0E028
:10212000EAE3F0E08081482F8B81282F30E081E0C6
:1021300090E0022E02C0880F991F0A94E2F7809562
:1021400084238C93A8C08C81282F30E03A8729877C
:1021500089859A850097D1F029853A852130310506
:1021600009F099C0A7E3B0E0E7E3F0E08081482FF1
:102170008B81282F30E081E090E0022E02C0880F92
:10218000991F0A94E2F7842B8C9385C0A7E3B0E0F3
:10219000E7E3F0E08081482F8B81282F30E081E059
:1021A00090E0022E02C0880F991F0A94E2F78095F2
:1021B00084238C9370C08C81282F30E038872F8344
:1021C0008F8198850097D1F02F8138852130310596
:1021D00009F061C0A4E3B0E0E4E3F0E08081482FBF
:1021E0008B81282F30E081E090E0022E02C0880F22
:1021F000991F0A94E2F7842B8C934DC0A4E3B0E0BE
:10220000E4E3F0E08081482F8B81282F30E081E0EB
:1022100090E0022E02C0880F991F0A94E2F7809581
:1022200084238C9338C08C81282F30E03E832D830B
:102230008D819E810097C9F02D813E81213031052D
:1022400051F5A1E3B0E0E1E3F0E08081482F8B811C
:10225000282F30E081E090E0022E02C0880F991F05
:102260000A94E2F7842B8C9316C0A1E3B0E0E1E37B
:10227000F0E08081482F8B81282F30E081E090E0D2
:10228000022E02C0880F991F0A94E2F780958423DA
:102290008C9301C0198289812E960FB6F894DEBF07
:1022A0000FBECDBFCF91DF910895DF93CF93CDB710
:1022B000DEB72E970FB6F894DEBF0FBECDBF8A8370
:1022C0006B834C8381E089838A81843008F00CC160
:1022D0008B81883008F008C18C81813021F08C819D
:1022E000882309F001C18A81282F30E03E872D879D
:1022F0008D859E858130910509F44FC02D853E85E1
:10230000223031052CF48D859E85009771F0EDC04B
:102310002D853E852230310509F477C08D859E8557
:102320008330910509F4A9C0E0C08C81282F30E0EA
:102330003C872B878B859C850097D1F02B853C852E
:102340002130310509F0D1C0ABE3B0E0EBE3F0E0C0
:102350008081482F8B81282F30E081E090E0022E91
:1023600002C0880F991F0A94E2F7842B8C93BDC09A
:10237000ABE3B0E0EBE3F0E08081482F8B81282FC6
:1023800030E081E090E0022E02C0880F991F0A948D
:10239000E2F7809584238C93A8C08C81282F30E0AD
:1023A0003A87298789859A850097D1F029853A85CA
:1023B0002130310509F099C0A8E3B0E0E8E3F0E08E
:1023C0008081482F8B81282F30E081E090E0022E21
:1023D00002C0880F991F0A94E2F7842B8C9385C062
:1023E000A8E3B0E0E8E3F0E08081482F8B81282F5C
:1023F00030E081E090E0022E02C0880F991F0A941D
:10240000E2F7809584238C9370C08C81282F30E074
:1024100038872F838F8198850097D1F02F81388559
:102420002130310509F061C0A5E3B0E0E5E3F0E05B
:102430008081482F8B81282F30E081E090E0022EB0
:1024400002C0880F991F0A94E2F7842B8C934DC029
:10245000A5E3B0E0E5E3F0E08081482F8B81282FF1
:1024600030E081E090E0022E02C0880F991F0A94AC
:10247000E2F7809584238C9338C08C81282F30E03C
:102480003E832D838D819E810097C9F02D813E81F1
:102490002130310551F5A2E3B0E0E2E3F0E08081C4
:1024A000482F8B81282F30E081E090E0022E02C07F
:1024B000880F991F0A94E2F7842B8C9316C0A2E32D
:1024C000B0E0E2E3F0E08081482F8B81282F30E0FC
:1024D00081E090E0022E02C0880F991F0A94E2F773
:1024E000809584238C9301C0198289812E960FB622
:1024F000F894DEBF0FBECDBFCF91DF910895DF937B
:10250000CF93CDB7DEB728970FB6F894DEBF0FBED6
:10251000CDBF8B836C835E834D8381E08A838B8107
:10252000843008F09EC08C81883008F09AC08D817C
:102530009E81009709F495C08B81282F30E0388761
:102540002F838F81988581309105A1F12F81388566
:10255000223031052CF48F819885009771F082C06C
:102560002F8138852230310509F441C08F8198854B
:102570008330910509F458C075C0E9E3F0E080812B
:10258000482F8C81282F30E081E090E0022E02C09D
:10259000880F991F0A94E2F784238983898188230D
:1025A00021F4ED81FE8110825DC0ED81FE8181E02C
:1025B000808358C0E6E3F0E08081482F8C81282F8B
:1025C00030E081E090E0022E02C0880F991F0A944B
:1025D000E2F7842389838981882321F4ED81FE81B8
:1025E000108240C0ED81FE8181E080833BC0E3E347
:1025F000F0E08081482F8C81282F30E081E090E04E
:10260000022E02C0880F991F0A94E2F7842389835F
:102610008981882321F4ED81FE81108223C0ED8120
:10262000FE8181E080831EC0E0E3F0E08081482FDE
:102630008C81282F30E081E090E0022E02C0880FCC
:10264000991F0A94E2F7842389838981882321F4DE
:10265000ED81FE81108206C0ED81FE8181E08083E4
:1026600001C01A828A8128960FB6F894DEBF0FBE89
:10267000CDBFCF91DF910895DF93CF93CDB7DEB774
:102680002D970FB6F894DEBF0FBECDBF8A836B8344
:1026900081E089838A81843008F084C08B81813015
:1026A00021F08B81882309F07DC08A81282F30E0BA
:1026B0003D872C878C859D858130910571F12C8516
:1026C0003D85223031052CF48C859D85009769F07D
:1026D0006AC02C853D8522303105B1F18C859D8500
:1026E0008330910509F447C05EC08B81282F30E00C
:1026F0003B872A878A859B85009759F02A853B85E9
:102700002130310509F04FC0EAE3F0E08FEF80831C
:102710004AC0EAE3F0E0108246C08B81282F30E007
:102720003987288788859985009751F028853985CC
:1027300021303105C1F5E7E3F0E08FEF808333C04E
:10274000E7E3F0E010822FC08B81282F30E03F8339
:102750002E838E819F81009751F02E813F81213001
:10276000310509F5E4E3F0E08FEF80831CC0E4E37A
:10277000F0E0108218C08B81282F30E03D832C833D
:102780008C819D81009751F02C813D812130310554
:1027900051F4E1E3F0E08FEF808305C0E1E3F0E086
:1027A000108201C0198289812D960FB6F894DEBF80
:1027B0000FBECDBFCF91DF910895DF93CF9300D0AF
:1027C00000D00F92CDB7DEB78A836B8381E0898317
:1027D0008A81843098F58A81282F30E03D832C83CC
:1027E0008C819D8181309105D1F02C813D812230F9
:1027F00031052CF48C819D81009761F020C02C81E3
:102800003D812230310581F08C819D81833091059D
:1028100081F015C0EBE3F0E08B81808310C0E8E32A
:10282000F0E08B8180830BC0E5E3F0E08B81808357
:1028300006C0E2E3F0E08B81808301C019828981C8
:102840000F900F900F900F900F90CF91DF91089500
:10285000DF93CF9300D000D000D0CDB7DEB78A830E
:102860007C836B8381E089838A81843008F03FC058
:102870008B819C810097D9F18A81282F30E03E839B
:102880002D838D819E8181309105E1F02D813E81E6
:10289000223031052CF48D819E81009761F028C093
:1028A0002D813E8122303105A1F08D819E818330C2
:1028B0009105B1F01DC0E9E3F0E08081EB81FC817E
:1028C000808316C0E6E3F0E08081EB81FC818083A9
:1028D0000FC0E3E3F0E08081EB81FC81808308C0DE
:1028E000E0E3F0E08081EB81FC81808301C019820C
:1028F000898126960FB6F894DEBF0FBECDBFCF916B
:10290000DF910895DF93CF93CDB7DEB7E1970FB690
:10291000F894DEBF0FBECDBF9DA38CA37FA36EA393
:102920000E94F70E1982CE01039699A788A7E0E6C8
:10293000F0E0FBA7EAA7F2E1FCA7EAA5FBA500806F
:102940008AA59BA501969BA78AA7E8A5F9A5008261
:1029500088A599A5019699A788A79CA591509CA7A1
:10296000ECA5EE2351F7CE0145969EA78DA7E2E791
:10297000F0E0F8ABEFA7FFE0F9ABEFA5F8A9008016
:102980008FA598A9019698AB8FA7EDA5FEA500820B
:102990008DA59EA501969EA78DA799A9915099AB4B
:1029A000E9A9EE2351F789818823A1F40E946F0ED3
:1029B00081E060E00E94230ECE0103960E946F0D1D
:1029C00082E060E00E94230ECE0145960E946F0DCA
:1029D00081E08983CE0102960E94C9078A818130F5
:1029E00031F48EA19FA10E9408151982DCCF8A8143
:1029F0008230C9F6ECA1FDA181E080831982E196C5
:102A00000FB6F894DEBF0FBECDBFCF91DF91089512
:102A1000DF93CF93CDB7DEB7C85AD0400FB6F89446
:102A2000DEBF0FBECDBFFE01E757FF4F918380830E
:102A30001FA61EA681E090E09DA78CA71BA6AE0155
:102A40004F5C5F4FC557DF4F59834883CB58D04009
:102A500081E890E0C357DF4F99838883CD58D040F9
:102A60009FE0C157DF4F9883CF58D040C357DF4F07
:102A7000E881F981CD58D0400080C357DF4F4881AD
:102A80005981CD58D0404F5F5F4FC357DF4F5983B7
:102A90004883CD58D040C557DF4FE881F981CB58E6
:102AA000D0400082C557DF4F48815981CB58D04074
:102AB0004F5F5F4FC557DF4F59834883CB58D04096
:102AC000C157DF4F5881CF58D0405150C157DF4FC9
:102AD0005883CF58D040C157DF4F8881CF58D0405E
:102AE000882321F6FE01E05CFF4FC057DF4FF983DA
:102AF000E883C059D04040E950E0CE56DF4F5983BB
:102B00004883C259D0405FE0CC56DF4F5883C45948
:102B1000D040CE56DF4FE881F981C259D0400080C5
:102B2000CE56DF4F48815981C259D0404F5F5F4F29
:102B3000CE56DF4F59834883C259D040C057DF4F2C
:102B4000E881F981C059D0400082C057DF4F4881E9
:102B50005981C059D0404F5F5F4FC057DF4F5983F5
:102B60004883C059D040CC56DF4F5881C459D0401B
:102B70005150CC56DF4F5883C459D040CC56DF4F0C
:102B80008881C459D040882321F6CE01815B9F4FB4
:102B9000CB56DF4F99838883C559D040EFE9F0E0E9
:102BA000C956DF4FF983E883C759D040F1E1C756D2
:102BB000DF4FF883C959D040C956DF4FE881F9810A
:102BC000C759D0400080C956DF4F48815981C75945
:102BD000D0404F5F5F4FC956DF4F59834883C75975
:102BE000D040CB56DF4FE881F981C559D0400082F3
:102BF000CB56DF4F48815981C559D0404F5F5F4F59
:102C0000CB56DF4F59834883C559D040C756DF4F55
:102C10005881C959D0405150C756DF4F5883C959C0
:102C2000D040C756DF4F8881C959D040882321F64C
:102C3000CE01805A9F4FC656DF4F99838883CA5969
:102C4000D040E0EBF0E0C456DF4FF983E883CC5985
:102C5000D040FFE0C256DF4FF883CE59D040C45673
:102C6000DF4FE881F981CC59D0400080C456DF4F56
:102C700048815981CC59D0404F5F5F4FC456DF4FD8
:102C800059834883CC59D040C656DF4FE881F9813B
:102C9000CA59D0400082C656DF4F48815981CA596F
:102CA000D0404F5F5F4FC656DF4F59834883CA59A4
:102CB000D040C256DF4F5881CE59D0405150C256F5
:102CC000DF4F5883CE59D040C256DF4F8881CE594E
:102CD000D040882321F6CE0181599F4FC156DF4F46
:102CE00099838883CF59D040EFEBF0E0CF55DF4F89
:102CF000F983E883C15AD040F1E1CD55DF4FF88325
:102D0000C35AD040CF55DF4FE881F981C15AD04036
:102D10000080CF55DF4F48815981C15AD0404F5F65
:102D20005F4FCF55DF4F59834883C15AD040C156BA
:102D3000DF4FE881F981CF59D0400082C156DF4F83
:102D400048815981CF59D0404F5F5F4FC156DF4F07
:102D500059834883CF59D040CD55DF4F5881C35A4E
:102D6000D0405150CD55DF4F5883C35AD040CD5538
:102D7000DF4F8881C35AD040882321F6CE01805886
:102D80009F4FCC55DF4F99838883C45AD040E0EDE4
:102D9000F0E0CA55DF4FF983E883C65AD040F9E026
:102DA000C855DF4FF883C85AD040CA55DF4FE88175
:102DB000F981C65AD0400080CA55DF4F48815981F9
:102DC000C65AD0404F5F5F4FCA55DF4F5983488383
:102DD000C65AD040CC55DF4FE881F981C45AD04063
:102DE0000082CC55DF4F48815981C45AD0404F5F93
:102DF0005F4FCC55DF4F59834883C45AD040C855E4
:102E0000DF4F5881C85AD0405150C855DF4F5883C2
:102E1000C85AD040C855DF4F8881C85AD04088234F
:102E200021F60E947F0F0E946F0E81E060E00E94F9
:102E3000230ECE01C1960E946F0D2BC0CE01C0960D
:102E40000E94C90788A98F3F21F18AE20E94850C60
:102E500088A9282F30E08CA59DA5F901E89F900155
:102E6000E99F300DF89F300D11248EA59FA5820F8C
:102E7000931F9FA78EA78CA59DA59C01220F331F92
:102E8000C901880F991F880F991F820F931F9DA753
:102E90008CA788A9833491F6FE01E757FF4F019074
:102EA000F081E02D208131818EA59FA5281739075B
:102EB00009F0D4C08FEF88AB81E090E09DA78CA78C
:102EC0001FA61EA60E946F0E81E060E00E94230EE6
:102ED000CE01805C9F4F0E946F0D2BC0CE01C0962B
:102EE0000E94C90788A98F3F21F18AE20E94850CC0
:102EF00088A9282F30E08CA59DA5A901489F9001A5
:102F0000499F300D589F300D11248EA59FA5820F2B
:102F1000931F9FA78EA78CA59DA59C01220F331FF1
:102F2000C901880F991F880F991F820F931F9DA7B2
:102F30008CA788A9833491F68FEF88AB81E090E06D
:102F40009DA78CA7FE01E757FF4F0190F081E02D70
:102F50008EA59FA5918380831FA61EA60E946F0E3B
:102F60000E94F70E81E060E00E94230ECE01815B9B
:102F70009F4F0E946F0D80E090E0AAE7B4E48FA31A
:102F800098A7A9A7BAA76FA178A589A59AA520E0B7
:102F900030E04AEF54E40E941F02DC01CB018BA316
:102FA0009CA3ADA3BEA36BA17CA18DA19EA120E09B
:102FB00030E040E85FE30E94250488232CF481E0A0
:102FC00090E09AA389A33FC06BA17CA18DA19EA193
:102FD00020E03FEF4FE757E40E94C50318164CF579
:102FE0006FA178A589A59AA520E030E040E251E4E0
:102FF0000E941F02DC01CB01BC01CD010E944900EF
:10300000DC01CB019AA389A30FC088EC90E098A3C0
:103010008F8F8F8D98A10197F1F798A38F8F89A13A
:103020009AA101979AA389A389A19AA1009769F708
:103030002CC16BA17CA18DA19EA10E944900DC0145
:10304000CB019AA389A389A19AA19E8F8D8F8D8D83
:103050009E8D0197F1F79E8F8D8F17C11FA61EA61B
:1030600081E090E09DA78CA78FEF88AB0E946F0E48
:1030700081E060E00E94230ECE01805A9F4F0E94A3
:103080006F0D80E090E0AAE7B4E4898F9A8FAB8F50
:10309000BC8F698D7A8D8B8D9C8D20E030E04AEF5E
:1030A00054E40E941F02DC01CB018D8B9E8BAF8B01
:1030B000B88F6D897E898F89988D20E030E040E857
:1030C0005FE30E94250488232CF481E090E09C8B30
:1030D0008B8B3FC06D897E898F89988D20E03FEF73
:1030E0004FE757E40E94C50318164CF5698D7A8D99
:1030F0008B8D9C8D20E030E040E251E40E941F0265
:10310000DC01CB01BC01CD010E944900DC01CB01F7
:103110009C8B8B8B0FC088EC90E09A8B898B898974
:103120009A890197F1F79A8B898B8B899C890197F2
:103130009C8B8B8B8B899C89009769F714C06D8958
:103140007E898F89988D0E944900DC01CB019C8B80
:103150008B8B8B899C89988B8F878F85988901971A
:10316000F1F7988B8F878BA58F5F8BA78BA583300B
:1031700009F057CE1BA60E94F70E0E946F0E81E049
:1031800060E00E94230ECE0181599F4F0E946F0D77
:1031900082E060E00E94230ECE0180589F4F0E9483
:1031A0006F0D80E090E0AAE7B4E48B879C87AD8741
:1031B000BE876B857C858D859E8520E030E04AEF5B
:1031C00054E40E941F02DC01CB018F839887A987FA
:1031D000BA876F81788589859A8520E030E040E85C
:1031E0005FE30E94250488232CF481E090E09E8315
:1031F0008D833FC06F81788589859A8520E03FEF78
:103200004FE757E40E94C50318164CF56B857C8583
:103210008D859E8520E030E040E251E40E941F024F
:10322000DC01CB01BC01CD010E944900DC01CB01D6
:103230009E838D830FC088EC90E09C838B838B8171
:103240009C810197F1F79C838B838D819E810197EF
:103250009E838D838D819E81009769F714C06F8155
:10326000788589859A850E944900DC01CB019E837F
:103270008D838D819E819A83898389819A8101972B
:10328000F1F79A8389830E946F0EC855DF4F0FB6FE
:10329000F894DEBF0FBECDBFCF91DF910895DF93CD
:1032A000CF9300D000D0CDB7DEB78A8381E0898389
:1032B0008A81282F30E03C832B838B819C81813055
:1032C000910569F12B813C81223031052CF48B81F1
:1032D0009C81009771F08FC02B813C812230310599
:1032E00009F441C08B819C818330910509F45FC052
:1032F00082C0A3E5B0E0E3E5F0E080818F7B8C93B2
:10330000A3E5B0E0E3E5F0E08081877F8C93A9E559
:10331000B0E0E9E5F0E0808181608C936DC0A3E5C9
:10332000B0E0E3E5F0E080818F7B8C93A3E5B0E033
:10333000E3E5F0E0808188608C93A9E5B0E0E9E501
:10334000F0E0808182608C93A3E5B0E0E3E5F0E0FB
:1033500080818F7E8C93A3E5B0E0E3E5F0E080818F
:103360008F7D8C9349C0A3E5B0E0E3E5F0E0808178
:103370008F7B8C93A3E5B0E0E3E5F0E0808188608B
:103380008C93A9E5B0E0E9E5F0E0808181608C9361
:10339000A3E5B0E0E3E5F0E080818F7E8C93A3E5C8
:1033A000B0E0E3E5F0E080818F7D8C9325C0A3E55C
:1033B000B0E0E3E5F0E0808180648C93A3E5B0E0C9
:1033C000E3E5F0E0808188608C93A9E5B0E0E9E571
:1033D000F0E0808181608C93A3E5B0E0E3E5F0E06C
:1033E00080818F7E8C93A3E5B0E0E3E5F0E08081FF
:1033F0008F7D8C9301C0198289810F900F900F905F
:103400000F90CF91DF910895DF93CF93CDB7DEB7C3
:10341000E2E5F0E08081CF91DF910895DF93CF93D3
:103420000F92CDB7DEB7A3E5B0E0E3E5F0E0808131
:103430008B7F8C93A3E5B0E0E3E5F0E080818E7FA5
:103440008C93A3E5B0E0E3E5F0E0808182608C93AB
:1034500089810F90CF91DF910895DF93CF930F92E1
:10346000CDB7DEB78983E2E5F0E0898180830F90F4
:10347000CF91DF9108951F920F920FB60F921124F2
:103480002F933F934F935F936F937F938F939F936C
:10349000AF93BF93EF93FF93DF93CF93CDB7DEB797
:1034A00080915B0290915C02009729F0E0915B02B1
:1034B000F0915C020995CF91DF91FF91EF91BF915F
:1034C000AF919F918F917F916F915F914F913F91BC
:1034D0002F910F900FBE0F901F9018951F920F9273
:1034E0000FB60F9211242F933F934F935F936F93D7
:1034F0007F938F939F93AF93BF93EF93FF93DF934C
:10350000CF93CDB7DEB78091590290915A020097C0
:1035100029F0E0915902F0915A020995CF91DF917B
:10352000FF91EF91BF91AF919F918F917F916F919B
:103530005F914F913F912F910F900FBE0F901F9071
:103540001895DF93CF9300D000D0CDB7DEB78A8334
:103550007C836B8381E089838A81833020F48B8133
:103560009C81009709F419828A81882F90E0880F46
:10357000991FFC01E75AFD4F8B819C8191838083C9
:1035800089810F900F900F900F90CF91DF91089548
:10359000DF93CF930F92CDB7DEB78983ECE5F0E0F0
:1035A000898180830F90CF91DF910895DF93CF932E
:1035B000CDB7DEB7AFE4B0E0EFE4F0E08081826049
:1035C0008C93AFE4B0E0EFE4F0E080818E7F8C93E9
:1035D000AEE4B0E0EEE4F0E0808188608C93AEE48D
:1035E000B0E0EEE4F0E0808180618C93AFE4B0E085
:1035F000EFE4F0E0808180688C93AFE4B0E0EFE42A
:10360000F0E080818F7B8C93A9E5B0E0E9E5F0E004
:10361000808184608C93CF91DF9108951F920F92E7
:103620000FB60F9211242F933F934F935F936F9395
:103630007F938F939F93AF93BF93EF93FF93DF930A
:10364000CF93CDB7DEB780915D0290915E02009777
:1036500029F0E0915D02F0915E020995CF91DF9132
:10366000FF91EF91BF91AF919F918F917F916F915A
:103670005F914F913F912F910F900FBE0F901F9030
:103680001895DF93CF9300D000D0CDB7DEB78A83F3
:103690007C836B8381E089838A81843020F48B81F1
:1036A0009C81009709F419828A81882F90E0880F05
:1036B000991FFC01E75AFD4F8B819C819183808388
:1036C00089810F900F900F900F90CF91DF91089507
:1036D000DF93CF930F92CDB7DEB7AEE4B0E0EEE468
:1036E000F0E080818B7F8C93AEE4B0E0EEE4F0E01C
:1036F00080818E7F8C93AEE4B0E0EEE4F0E08081D8
:1037000082608C9389810F90CF91DF910895DF9330
:10371000CF9300D0CDB7DEB79A838983EAE4F0E097
:1037200089819A81918380830F900F90CF91DF914F
:103730000895DF93CF9300D0CDB7DEB79A83898306
:10374000E6E4F0E089819A81918380830F900F9065
:10375000CF91DF910895DF93CF93CDB7DEB7ECE43F
:10376000F0E080819181CF91DF910895DF93CF9335
:10377000CDB7DEB7C155D0400FB6F894DEBF0FBE4F
:10378000CDBF9DAF8CAF0E94F70ECE0102969FAFCA
:103790008EAFE9EDF0E02296FFAFEEAF2297FEE0AC
:1037A0002396FFAF23972296EEADFFAD22970080C0
:1037B00022968EAD9FAD2297019622969FAF8EAF37
:1037C0002297EEADFFAD00828EAD9FAD01969FAF0B
:1037D0008EAF23969FAD2397915023969FAF23974B
:1037E0002396EFAD2397EE23F1F6CE014096259672
:1037F0009FAF8EAF2597E7EEF0E02796FFAFEEAFD5
:103800002797F1E12896FFAF28972796EEADFFADF9
:103810002797008027968EAD9FAD27970196279614
:103820009FAF8EAF27972596EEADFFAD259700820F
:1038300025968EAD9FAD2597019625969FAF8EAFAD
:10384000259728969FAD2897915028969FAF289747
:103850002896EFAD2897EE23C1F6CE0181962A96E1
:103860009FAF8EAF2A97E8EFF0E02C96FFAFEEAF58
:103870002C97FCE02D96FFAF2D972C96EEADFFAD6B
:103880002C9700802C968EAD9FAD2C9701962C9690
:103890009FAF8EAF2C972A96EEADFFAD2A97008290
:1038A0002A968EAD9FAD2A9701962A969FAF8EAF2E
:1038B0002A972D969FAD2D9791502D969FAF2D97BE
:1038C0002D96EFAD2D97EE23C1F6CE018D962F9656
:1038D0009FAF8EAF2F97E4E0F1E06196FFAFEEAFC0
:1038E0006197FFE06296FFAF62976196EEADFFAD24
:1038F0006197008061968EAD9FAD6197019661964C
:103900009FAF8EAF61972F96EEADFFAD2F970082E0
:103910002F968EAD9FAD2F9701962F969FAF8EAFAE
:103920002F9762969FAD6297915062969FAF629774
:103930006296EFAD6297EE23C1F680915F02882315
:1039400029F50E946F0E81E060E00E94230ECE01F7
:1039500002960E946F0D82E060E00E94230ECE016D
:1039600040960E946F0D83E060E00E94230ECE011E
:1039700081960E946F0D84E060E00E94230ECE01CC
:103980008D960E946F0D81E080935F02CE010196BB
:103990000E94C9078981813019F40E94B61ECDCFDB
:1039A0008981823019F40E94F01CC7CF898183304D
:1039B00019F40E940B21C1CF8981843009F0BDCF59
:1039C000ECADFDAD81E0808310925F02CF5ADF4FF6
:1039D0000FB6F894DEBF0FBECDBFCF91DF91089533
:1039E000DF93CF93CDB7DEB7CF54D0400FB6F89466
:1039F000DEBF0FBECDBFCE0102969DAF8CAFE3E11F
:103A0000F1E0FFAFEEAFFDE02196FFAF2197EEAD05
:103A1000FFAD00808EAD9FAD01969FAF8EAFECAD38
:103A2000FDAD00828CAD9DAD01969DAF8CAF219612
:103A30009FAD2197915021969FAF21972196EFAD91
:103A40002197EE2321F7CE010F9623969FAF8EAFDD
:103A50002397E0E2F1E02596FFAFEEAF2597FFE078
:103A60002696FFAF26972596EEADFFAD25970080F1
:103A700025968EAD9FAD2597019625969FAF8EAF6B
:103A800025972396EEADFFAD2397008223968EAD4A
:103A90009FAD2397019623969FAF8EAF23972696CF
:103AA0009FAD2697915026969FAF26972696EFAD0D
:103AB0002697EE23C1F6CE014E9628969FAF8EAF85
:103AC0002897EFE2F1E02A96FFAFEEAF2A97FFE0EA
:103AD0002B96FFAF2B972A96EEADFFAD2A9700806D
:103AE0002A968EAD9FAD2A9701962A969FAF8EAFEC
:103AF0002A972896EEADFFAD2897008228968EADC6
:103B00009FAD2897019628969FAF8EAF28972B964A
:103B10009FAD2B9791502B969FAF2B972B96EFAD88
:103B20002B97EE23C1F6CE018D962D969FAF8EAFCB
:103B30002D97E4E0F1E02F96FFAFEEAF2F97FFE077
:103B40006096FFAF60972F96EEADFFAD2F97008088
:103B50002F968EAD9FAD2F9701962F969FAF8EAF6C
:103B60002F972D96EEADFFAD2D9700822D968EAD41
:103B70009FAD2D9701962D969FAF8EAF2D97609696
:103B80009FAD6097915060969FAF60976096EFAD44
:103B90006097EE23C1F60E946F0E81E060E00E9404
:103BA000230ECE0102960E946F0D82E060E00E941B
:103BB000230ECE010F960E946F0D83E060E00E94FD
:103BC000230ECE014E960E946F0D84E060E00E94AD
:103BD000230ECE018D960E946F0DCE0101960E949C
:103BE000C90789818130C1F480E064E041E00E942E
:103BF000551180E065E040E00E94551180E066E0EC
:103C000040E00E94551180E067E040E00E945511BD
:103C100081E080936402E1CF8981823009F07CC029
:103C200080916402882309F477C080916402813016
:103C3000D1F480E065E041E00E94551180E064E04D
:103C400040E00E94551180E066E040E00E9455117E
:103C500080E067E040E00E945511809164028F5F30
:103C600080936402BACF809164028230D1F480E004
:103C700066E041E00E94551180E065E040E00E946E
:103C8000551180E064E040E00E94551180E067E05B
:103C900040E00E945511809164028F5F809364021E
:103CA0009CCF809164028330D1F480E067E041E0F2
:103CB0000E94551180E065E040E00E94551180E0CF
:103CC00064E040E00E94551180E066E040E00E9420
:103CD0005511809164028F5F809364027ECF809142
:103CE0006402843009F079CF80E064E041E00E9412
:103CF000551180E065E040E00E94551180E067E0EA
:103D000040E00E94551180E066E040E00E945511BD
:103D100081E08093640261CF89818330B9F480E0CF
:103D200064E040E00E94551180E065E040E00E94C0
:103D3000551180E066E040E00E94551180E067E0A8
:103D400040E00E9455111092640247CF898184306F
:103D500009F043CF10925F02C15BDF4F0FB6F894BA
:103D6000DEBF0FBECDBFCF91DF910895DF93CF931C
:103D7000CDB7DEB7C957D0400FB6F894DEBF0FBE3F
:103D8000CDBF0E946F0ECE0102966E969FAF8EAF92
:103D90006E97EEE3F1E0A096FFAFEEAFA097F8E0EC
:103DA000A196FFAFA197A096EEADFFADA0970080C2
:103DB000A0968EAD9FADA0970196A0969FAF8EAFB7
:103DC000A0976E96EEADFFAD6E9700826E968EADAB
:103DD0009FAD6E9701966E969FAF8EAF6E97A19630
:103DE0009FADA1979150A1969FAFA197A196EFADDE
:103DF000A197EE23C1F6CE010A96A3969FAF8EAF90
:103E0000A397E6E4F1E0A596FFAFEEAFA597F1E149
:103E1000A696FFAFA697A596EEADFFADA59700803D
:103E2000A5968EAD9FADA5970196A5969FAF8EAF37
:103E3000A597A396EEADFFADA3970082A3968EAD96
:103E40009FADA3970196A3969FAF8EAFA397A6961B
:103E50009FADA6979150A6969FAFA697A696EFAD59
:103E6000A697EE23C1F6CE014B96A8969FAF8EAFD4
:103E7000A897E7E5F1E0AA96FFAFEEAFAA97F1E1C8
:103E8000AB96FFAFAB97AA96EEADFFADAA970080B9
:103E9000AA968EAD9FADAA970196AA969FAF8EAFB8
:103EA000AA97A896EEADFFADA8970082A8968EAD12
:103EB0009FADA8970196A8969FAF8EAFA897AB9697
:103EC0009FADAB979150AB969FAFAB97AB96EFADD5
:103ED000AB97EE23C1F6CE018C96AD969FAF8EAF19
:103EE000AD97E8E6F1E0AF96FFAFEEAFAF97FDE03C
:103EF000E096FFAFE097AF96EEADFFADAF970080D5
:103F0000AF968EAD9FADAF970196AF969FAF8EAF38
:103F1000AF97AD96EEADFFADAD970082AD968EAD8D
:103F20009FADAD970196AD969FAF8EAFAD97E096E2
:103F30009FADE0979150E0969FAFE097E096EFAD90
:103F4000E097EE23C1F6CE01C996E2969FAF8EAF01
:103F5000E297E5E7F1E0E496FFAFEEAFE497FFE02C
:103F6000E596FFAFE597E496EEADFFADE4970080F0
:103F7000E4968EAD9FADE4970196E4969FAF8EAF29
:103F8000E497E296EEADFFADE2970082E2968EAD49
:103F90009FADE2970196E2969FAF8EAFE297E596CE
:103FA0009FADE5979150E5969FAFE597E596EFAD0C
:103FB000E597EE23C1F6CE01885B9F4FE7969FAF52
:103FC0008EAFE79784E891E0E9969FAF8EAFE997CF
:103FD00091E1EA969FAFEA97E996EEADFFADE997DA
:103FE0000080E9968EAD9FADE9970196E9969FAF67
:103FF0008EAFE997E796EEADFFADE7970082E796C3
:104000008EAD9FADE7970196E7969FAF8EAFE7978E
:10401000EA969FADEA979150EA969FAFEA97EA96A3
:10402000EFADEA97EE23C1F68FEF89830E944F062A
:10403000CE01855A9F4F0E94C907FE01E55AFF4FE6
:104040008081813061F410925F02C758DF4F0FB654
:10405000F894DEBF0FBECDBFCF91DF9108959E01D2
:10406000275A3F4F80E0B9010E948E06FE01E75AB1
:10407000FF4F80819181CC01A0E0B0E028E833E1DE
:1040800040E050E0BC01CD010E94F827DC01CB01EB
:1040900020E038E240E050E0BC01CD010E9417284A
:1040A000DA01C901FE01E75AFF4F918380838981BC
:1040B000282F30E0FE01E75AFF4F808191812817B9
:1040C000390709F4B5CFFE01E75AFF4F808191818E
:1040D0008983FE01E75AFF4F8081918189319105E3
:1040E00078F181E060E00E94230ECE0102960E94EA
:1040F0006F0DFE01E75AFF4F80819181CC01A0E056
:10410000B0E0BC01CD010E94970D82E060E00E940A
:10411000230ECE010A960E946F0D84E060E00E949B
:10412000230ECE01C9960E946F0D83E063E041E04B
:104130000E94551183E064E040E00E94551178CF61
:104140008981853178F581E060E00E94230ECE01FF
:1041500002960E946F0DFE01E75AFF4F8081918108
:10416000CC01A0E0B0E0BC01CD010E94970D82E03F
:1041700060E00E94230ECE014B960E946F0D84E0FA
:1041800060E00E94230ECE01C9960E946F0D83E06D
:1041900064E041E00E94551183E063E040E00E944A
:1041A000551146CF81E060E00E94230ECE010296B9
:1041B0000E946F0DFE01E75AFF4F808191810196A9
:1041C000CC01A0E0B0E0BC01CD010E94970D82E0DF
:1041D00060E00E94230ECE01885B9F4F0E946F0D0E
:1041E00082E060E00E94230ECE018C960E946F0D4B
:1041F00084E060E00E94230ECE01C9960E946F0DFC
:1042000083E064E040E00E94551183E063E040E019
:104210000E9455110DCFDF93CF93CDB7DEB76597D1
:104220000FB6F894DEBF0FBECDBFCE0101969A8BBC
:10423000898BE5E7F1E0FC8BEB8BFFE0FD8BEB89F5
:10424000FC8900808B899C8901969C8B8B8BE989EA
:10425000FA89008289899A8901969A8B898B9D892E
:1042600091509D8BED89EE2351F70E946F0E84E0F3
:1042700060E00E94230ECE0101960E946F0DCE01D8
:1042800040960E94C9078889813059F410925F02D4
:1042900065960FB6F894DEBF0FBECDBFCF91DF910C
:1042A000089581E065E00E94230E80913D028A30EE
:1042B00030F460E070E080E090E00E94970D809123
:1042C0003D02882F90E0A0E0B0E0BC01CD010E944B
:1042D000970D8AE30E94850C809161028A3030F448
:1042E00060E070E080E090E00E94970D80916102B4
:1042F000882F90E0A0E0B0E0BC01CD010E94970DB6
:104300008AE30E94850C809160028A3030F460E07C
:1043100070E080E090E00E94970D80916002882F0D
:1043200090E0A0E0B0E0BC01CD010E94970D80912B
:104330006202909163028431910509F4B2CF8091B9
:10434000620290916302009709F4ABCF98CFDF939C
:10435000CF93CDB7DEB78091620290916302853032
:10436000910511F510926302109262028091600231
:104370008F5F80936002809160028C33F1F4109221
:104380006002809161028F5F80936102809161027F
:104390008C3399F4109260021092610280913D0278
:1043A0008F5F80933D0209C0809162029091630209
:1043B00001969093630280936202CF91DF910895FA
:1043C000DF93CF93CDB7DEB7C550D1400FB6F89489
:1043D000DEBF0FBECDBF0E9407100E94D8080E940A
:1043E000AD070E94D61A8FE493EC0E94991B27EA2E
:1043F00031E282E0B9010E94411B0E94681BAE01BC
:10440000405D5F4FCC52DF4F59834883C45DD0403D
:1044100085E991E0CA52DF4F99838883C65DD04019
:1044200092E1C852DF4F9883C85DD040CA52DF4F37
:10443000E881F981C65DD0400080CA52DF4F4881D3
:104440005981C65DD0404F5F5F4FCA52DF4F5983DD
:104450004883C65DD040CC52DF4FE881F981C45D0E
:10446000D0400082CC52DF4F48815981C45DD0409A
:104470004F5F5F4FCC52DF4F59834883C45DD040BC
:10448000C852DF4F5881C85DD0405150C852DF4FED
:104490005883C85DD040C852DF4F8881C85DD04086
:1044A000882321F6CE018E5B9F4FC752DF4F998341
:1044B0008883C95DD040E7EAF1E0C552DF4FF98358
:1044C000E883CB5DD040F2E1C352DF4FF883CD5D8E
:1044D000D040C552DF4FE881F981CB5DD0400080EC
:1044E000C552DF4F48815981CB5DD0404F5F5F4F50
:1044F000C552DF4F59834883CB5DD040C752DF4F51
:10450000E881F981C95DD0400082C752DF4F488100
:104510005981C95DD0404F5F5F4FC752DF4F59830C
:104520004883C95DD040C352DF4F5881CD5DD04034
:104530005150C352DF4F5883CD5DD040C352DF4F3F
:104540008881CD5DD040882321F6CE018C5A9F4FC3
:10455000C252DF4F99838883CE5DD040E9EBF1E012
:10456000C052DF4FF983E883C05ED040FCE0CE51FB
:10457000DF4FF883C25ED040C052DF4FE881F9813F
:10458000C05ED0400080C052DF4F48815981C05E7C
:10459000D0404F5F5F4FC052DF4F59834883C05EAA
:1045A000D040C252DF4FE881F981CE5DD040008219
:1045B000C252DF4F48815981CE5DD0404F5F5F4F7F
:1045C000C252DF4F59834883CE5DD040CE51DF4F7A
:1045D0005881C25ED0405150CE51DF4F5883C25EE9
:1045E000D040CE51DF4F8881C25ED040882321F673
:1045F000CE01805A9F4FCD51DF4F99838883C35E90
:10460000D040E5ECF1E0CB51DF4FF983E883C55EA4
:10461000D040F1E1C951DF4FF883C75ED040CB51A4
:10462000DF4FE881F981C55ED0400080CB51DF4F7C
:1046300048815981C55ED0404F5F5F4FCB51DF4FFE
:1046400059834883C55ED040CD51DF4FE881F98161
:10465000C35ED0400082CD51DF4F48815981C35E97
:10466000D0404F5F5F4FCD51DF4F59834883C35ECA
:10467000D040C951DF4F5881C75ED0405150C95119
:10468000DF4F5883C75ED040C951DF4F8881C75E76
:10469000D040882321F6CE018F589F4FC851DF4F5D
:1046A00099838883C85ED040E6EDF1E0C651DF4FC4
:1046B000F983E883CA5ED040F0E1C451DF4FF8834C
:1046C000CC5ED040C651DF4FE881F981CA5ED04050
:1046D0000080C651DF4F48815981CA5ED0404F5F8C
:1046E0005F4FC651DF4F59834883CA5ED040C851DF
:1046F000DF4FE881F981C85ED0400082C851DF4FAA
:1047000048815981C85ED0404F5F5F4FC851DF4F2D
:1047100059834883C85ED040C451DF4F5881CC5E76
:10472000D0405150C451DF4F5883CC5ED040C4516B
:10473000DF4F8881CC5ED040882321F6CE018F5791
:104740009F4FC351DF4F99838883CD5ED040E6EE03
:10475000F1E0C151DF4FF983E883CF5ED040F5E14E
:10476000CF50DF4FF883C15FD040C151DF4FE881A8
:10477000F981CF5ED0400080C151DF4F488159811F
:10478000CF5ED0404F5F5F4FC151DF4F59834883A9
:10479000CF5ED040C351DF4FE881F981CD5ED0407C
:1047A0000082C351DF4F48815981CD5ED0404F5FB9
:1047B0005F4FC351DF4F59834883CD5ED040CF5008
:1047C000DF4F5881C15FD0405150CF50DF4F5883E9
:1047D000C15FD040CF50DF4F8881C15FD040882378
:1047E00021F6CE018A569F4FCE50DF4F99838883A2
:1047F000C25FD040EBEFF1E0CC50DF4FF983E883AC
:10480000C45FD040FFE0CA50DF4FF883C65FD0409E
:10481000CC50DF4FE881F981C45FD0400080CC509C
:10482000DF4F48815981C45FD0404F5F5F4FCC500C
:10483000DF4F59834883C45FD040CE50DF4FE881BB
:10484000F981C25FD0400082CE50DF4F488159814C
:10485000C25FD0404F5F5F4FCE50DF4F59834883D8
:10486000C25FD040CA50DF4F5881C65FD040515020
:10487000CA50DF4F5883C65FD040CA50DF4F88818F
:10488000C65FD040882321F6CE018B559F4FC9507B
:10489000DF4F99838883C75FD040EAE0F2E0C750DA
:1048A000DF4FF983E883C95FD040FBE0C550DF4F9D
:1048B000F883CB5FD040C750DF4FE881F981C95FF3
:1048C000D0400080C750DF4F48815981C95FD04038
:1048D0004F5F5F4FC750DF4F59834883C95FD04058
:1048E000C950DF4FE881F981C75FD0400082C950CD
:1048F000DF4F48815981C75FD0404F5F5F4FC9503C
:10490000DF4F59834883C75FD040C550DF4F588180
:10491000CB5FD0405150C550DF4F5883CB5FD04064
:10492000C550DF4F8881CB5FD040882321F6CE0170
:1049300080559F4FC450DF4F99838883CC5FD04010
:10494000E5E1F2E0C250DF4FF983E883CE5FD0406B
:10495000FFE0C050DF4FF883C050D140C250DF4F5E
:10496000E881F981CE5FD0400080C250DF4F48819E
:104970005981CE5FD0404F5F5F4FC250DF4F5983A8
:104980004883CE5FD040C450DF4FE881F981CC5FCF
:10499000D0400082C450DF4F48815981CC5FD04065
:1049A0004F5F5F4FC450DF4F59834883CC5FD04087
:1049B000C050DF4F5881C050D1405150C050DF4FE0
:1049C0005883C050D140C050DF4F8881C050D14083
:1049D000882321F6CE0181549F4FCF5FDE4F99830C
:1049E0008883C150D140E4E2F2E0CD5FDE4FF9832D
:1049F000E883C350D140F1E1CB5FDE4FF883C5506F
:104A0000D140CD5FDE4FE881F981C350D1400080B5
:104A1000CD5FDE4F48815981C350D1404F5F5F4F1A
:104A2000CD5FDE4F59834883C350D140CF5FDE4F07
:104A3000E881F981C150D1400082CF5FDE4F4881CB
:104A40005981C150D1404F5F5F4FCF5FDE4F5983D7
:104A50004883C150D140CB5FDE4F5881C550D14013
:104A60005150CB5FDE4F5883C550D140CB5FDE4FF6
:104A70008881C550D140882321F681E060E00E9402
:104A8000230ECE01C0960E946F0D82E060E00E946E
:104A9000230ECE018E5B9F4F0E946F0D83E060E07E
:104AA0000E94230ECE018C5A9F4F0E946F0DFE0173
:104AB000E053FF4F81E080831FA681E090E09EA736
:104AC0008DA738C0CE018F529F4F0E94C907FE01AB
:104AD000EF52FF4F80818F3F69F18AE20E94850C7F
:104AE000FE01EF52FF4F8081282F30E08DA59EA55B
:104AF000F901E89F9001E99F300DF89F300D1124D6
:104B0000FE01EE52FF4F80819181820F931FFE01C3
:104B1000EE52FF4F918380838DA59EA59C01220FAD
:104B2000331FC901880F991F880F991F820F931F88
:104B30009EA78DA7FE01EF52FF4F8081833411F6AF
:104B4000FE01EF52FF4F8FEF808381E090E09EA740
:104B50008DA70E946F0E0E94F70E81E060E00E9418
:104B6000230ECE01805A9F4F0E946F0D80E090E08F
:104B7000A8ECB2E48FA398A7A9A7BAA76FA178A5BC
:104B800089A59AA520E030E04AEF54E40E941F0274
:104B9000DC01CB018BA39CA3ADA3BEA36BA17CA125
:104BA0008DA19EA120E030E040E85FE30E94250453
:104BB00088232CF481E090E09AA389A33FC06BA1E5
:104BC0007CA18DA19EA120E03FEF4FE757E40E941A
:104BD000C50318164CF56FA178A589A59AA520E004
:104BE00030E040E251E40E941F02DC01CB01BC0135
:104BF000CD010E944900DC01CB019AA389A30FC01B
:104C000088EC90E098A38F8F8F8D98A10197F1F792
:104C100098A38F8F89A19AA101979AA389A389A1AB
:104C20009AA1009769F714C06BA17CA18DA19EA1E8
:104C30000E944900DC01CB019AA389A389A19AA112
:104C40009E8F8D8F8D8D9E8D0197F1F79E8F8D8F0D
:104C50000E946F0EFE01E053FF4F8081813061F5AD
:104C600081E060E00E94230ECE018F589F4F0E948A
:104C70006F0D82E060E00E94230ECE018F579F4FA0
:104C80000E946F0D83E060E00E94230ECE018A56E1
:104C90009F4F0E946F0D84E060E00E94230ECE01C2
:104CA0008B559F4F0E946F0D84E060E00E94230EA1
:104CB000FE01E053FF4F1082CE018F529F4F0E94A2
:104CC000C907FE01EF52FF4F8081813009F07DC19D
:104CD0000E946F0E0E947F0F81E060E00E94230E11
:104CE000CE018C5A9F4F0E946F0D32C0CE018F5261
:104CF0009F4F0E94C907FE01EF52FF4F80818F3FF7
:104D000039F18AE20E94850CFE01EF52FF4F80814B
:104D1000282F30E08DA59EA5A901489F9001499FAD
:104D2000300D589F300D11248BA59CA5820F931F29
:104D30009CA78BA78DA59EA59C01220F331FC9019F
:104D4000880F991F880F991F820F931F9EA78DA709
:104D5000FE01EF52FF4F8081833441F6FE01EE5297
:104D6000FF4F208131818BA59CA58217930791F479
:104D70001CA61BA681E090E09EA78DA7FE01E05334
:104D8000FF4F1082CE0180539F4F0E94B61B0E949E
:104D90006F0E60CF1CA61BA681E090E09EA78DA79A
:104DA000FE01E053FF4F1082FE01EF52FF4F8FEFE5
:104DB00080830E946F0E81E060E00E94230ECE018E
:104DC00080559F4F0E946F0D80E090E0AAE7B4E409
:104DD000898F9A8FAB8FBC8F698D7A8D8B8D9C8DCF
:104DE00020E030E04AEF54E40E941F02DC01CB01D6
:104DF0008D8B9E8BAF8BB88F6D897E898F89988DB7
:104E000020E030E040E85FE30E94250488232CF492
:104E100081E090E09C8B8B8B3FC06D897E898F8970
:104E2000988D20E03FEF4FE757E40E94C503181626
:104E30004CF5698D7A8D8B8D9C8D20E030E040E2C1
:104E400051E40E941F02DC01CB01BC01CD010E9494
:104E50004900DC01CB019C8B8B8B0FC088EC90E070
:104E60009A8B898B89899A890197F1F79A8B898B1B
:104E70008B899C8901979C8B8B8B8B899C89009754
:104E800069F714C06D897E898F89988D0E944900C9
:104E9000DC01CB019C8B8B8B8B899C89988B8F87BA
:104EA0008F8598890197F1F7988B8F878FA58F5FF2
:104EB0008FA78FA5833009F00BCF0E94F70E0E94B9
:104EC0006F0E81E060E00E94230ECE0181549F4F5F
:104ED0000E946F0D1FA6FE01E053FF4F81E080830B
:104EE00080E090E4ACE9B5E48B879C87AD87BE8712
:104EF0006B857C858D859E8520E030E04AEF54E40B
:104F00000E941F02DC01CB018F839887A987BA8793
:104F10006F81788589859A8520E030E040E85FE3FD
:104F20000E94250488232CF481E090E09E838D83E9
:104F30003FC06F81788589859A8520E03FEF4FE7F4
:104F400057E40E94C50318164CF56B857C858D854A
:104F50009E8520E030E040E251E40E941F02DC0127
:104F6000CB01BC01CD010E944900DC01CB019E8335
:104F70008D830FC088EC90E09C838B838B819C8118
:104F80000197F1F79C838B838D819E8101979E838E
:104F90008D838D819E81009769F714C06F8178851C
:104FA00089859A850E944900DC01CB019E838D830F
:104FB0008D819E819A83898389819A810197F1F7F6
:104FC0009A8389830E946F0E45CEFE01EF52FF4FF8
:104FD0008081823009F03ECECE0180539F4F9E01EA
:104FE0002E523F4FB9010E9482140E946F0E32CEA2
:104FF000629FD001739FF001829FE00DF11D649FBD
:10500000E00DF11D929FF00D839FF00D749FF00D48
:10501000659FF00D9927729FB00DE11DF91F639FE9
:10502000B00DE11DF91FBD01CF0111240895A1E2CA
:105030001A2EAA1BBB1BFD010DC0AA1FBB1FEE1F12
:10504000FF1FA217B307E407F50720F0A21BB30B5D
:10505000E40BF50B661F771F881F991F1A9469F7D9
:1050600060957095809590959B01AC01BD01CF0135
:1050700008952F923F924F925F926F927F928F92FC
:105080009F92AF92BF92CF92DF92EF92FF920F93D7
:105090001F93CF93DF93CDB7DEB7CA1BDB0B0FB6E1
:1050A000F894DEBF0FBECDBF09942A88398848889E
:1050B0005F846E847D848C849B84AA84B984C88434
:1050C000DF80EE80FD800C811B81AA81B981CE0F2B
:1050D000D11D0FB6F894DEBF0FBECDBFED01089510
:0450E000F894FFCF72
:1050E400312D4368616E67652050617373776F7209
:1050F4006400322D4261636B20746F206D656E75A0
:10510400004F6C642050617373776F72643A2000AF
:105114004E65772050617373776F72643A20005044
:10512400617373776F7264204368616E67656400AE
:1051340057726F6E672050617373776F7264005992
:105144006F752043616E2774206368616E67650024
:1051540050617373776F726400312D41646A7573A3
:10516400742054656D7000322D4C69676874732027
:10517400436F6E74726F6C00332D53686F772054D5
:10518400696D6500342D4261636B20746F206D6519
:105194006E7500312D4F70656E204C696768740020
:1051A400322D4368616E6765204C6967687400330B
:1051B4002D436C6F7365204C696768747300546584
:1051C4006D70203A2000436F6F6C65722049732024
:1051D4004F70656E6564004865617465722049733B
:1051E400204F70656E65640054656D70206973208E
:1051F40046696E6500312D4261636B20546F204D0A
:10520400656E7500202020202020202020202020D2
:10521400202020200057656C636F6D6520546F203B
:1052240053797374656D0053657420596F757220DA
:1052340050617373776F72640050617373776F7228
:1052440064203A200050617373776F726420576151
:1052540073205365740057656C636F6D6520746FBC
:1052640020686F6D65002D2D2D2D2D2D2D2D2D2DAF
:105274002D2D2D2D2D2D2D2D2D2D00312D54616BEA
:105284006520436F6E74726F6C00322D53657474B5
:10529400696E67730057726F6E672050617373771E
:1052A4006F7264004C6F67696E20626C6F636B652C
:1052B400642035730000000000000000000C0708A3
:1052C400092F040506780102032D43003D2B00013C
:0652D400020304050607B9
:00000001FF
